{
  "address": "0x0D18C5203c227284cf101d447d4cE90c2ae8b906",
  "abi": [
    {
      "inputs": [
        {
          "internalType": "address",
          "name": "target",
          "type": "address"
        }
      ],
      "name": "AddressEmptyCode",
      "type": "error"
    },
    {
      "inputs": [
        {
          "internalType": "address",
          "name": "implementation",
          "type": "address"
        }
      ],
      "name": "ERC1967InvalidImplementation",
      "type": "error"
    },
    {
      "inputs": [],
      "name": "ERC1967NonPayable",
      "type": "error"
    },
    {
      "inputs": [],
      "name": "FailedCall",
      "type": "error"
    },
    {
      "inputs": [],
      "name": "InvalidInitialization",
      "type": "error"
    },
    {
      "inputs": [],
      "name": "NotInitializing",
      "type": "error"
    },
    {
      "inputs": [
        {
          "internalType": "address",
          "name": "owner",
          "type": "address"
        }
      ],
      "name": "OwnableInvalidOwner",
      "type": "error"
    },
    {
      "inputs": [
        {
          "internalType": "address",
          "name": "account",
          "type": "address"
        }
      ],
      "name": "OwnableUnauthorizedAccount",
      "type": "error"
    },
    {
      "inputs": [],
      "name": "UUPSUnauthorizedCallContext",
      "type": "error"
    },
    {
      "inputs": [
        {
          "internalType": "bytes32",
          "name": "slot",
          "type": "bytes32"
        }
      ],
      "name": "UUPSUnsupportedProxiableUUID",
      "type": "error"
    },
    {
      "anonymous": false,
      "inputs": [
        {
          "indexed": false,
          "internalType": "uint64",
          "name": "version",
          "type": "uint64"
        }
      ],
      "name": "Initialized",
      "type": "event"
    },
    {
      "anonymous": false,
      "inputs": [
        {
          "indexed": true,
          "internalType": "address",
          "name": "previousOwner",
          "type": "address"
        },
        {
          "indexed": true,
          "internalType": "address",
          "name": "newOwner",
          "type": "address"
        }
      ],
      "name": "OwnershipTransferred",
      "type": "event"
    },
    {
      "anonymous": false,
      "inputs": [
        {
          "indexed": true,
          "internalType": "address",
          "name": "pool",
          "type": "address"
        },
        {
          "indexed": true,
          "internalType": "address",
          "name": "owner",
          "type": "address"
        },
        {
          "indexed": true,
          "internalType": "address",
          "name": "registry",
          "type": "address"
        },
        {
          "indexed": false,
          "internalType": "bytes32[]",
          "name": "extensions",
          "type": "bytes32[]"
        },
        {
          "indexed": false,
          "internalType": "bytes[]",
          "name": "data",
          "type": "bytes[]"
        }
      ],
      "name": "PoolCreated",
      "type": "event"
    },
    {
      "anonymous": false,
      "inputs": [
        {
          "indexed": true,
          "internalType": "address",
          "name": "implementation",
          "type": "address"
        }
      ],
      "name": "Upgraded",
      "type": "event"
    },
    {
      "inputs": [],
      "name": "UPGRADE_INTERFACE_VERSION",
      "outputs": [
        {
          "internalType": "string",
          "name": "",
          "type": "string"
        }
      ],
      "stateMutability": "view",
      "type": "function"
    },
    {
      "inputs": [
        {
          "internalType": "address",
          "name": "_owner",
          "type": "address"
        },
        {
          "internalType": "address",
          "name": "_beacon",
          "type": "address"
        }
      ],
      "name": "__PoolFactory_init",
      "outputs": [],
      "stateMutability": "nonpayable",
      "type": "function"
    },
    {
      "inputs": [],
      "name": "beacon",
      "outputs": [
        {
          "internalType": "address",
          "name": "",
          "type": "address"
        }
      ],
      "stateMutability": "view",
      "type": "function"
    },
    {
      "inputs": [
        {
          "internalType": "address",
          "name": "_initialOwner",
          "type": "address"
        },
        {
          "internalType": "address",
          "name": "_registry",
          "type": "address"
        },
        {
          "internalType": "bytes32[]",
          "name": "_extensions",
          "type": "bytes32[]"
        },
        {
          "internalType": "bytes[]",
          "name": "_data",
          "type": "bytes[]"
        },
        {
          "internalType": "uint256",
          "name": "_salt",
          "type": "uint256"
        }
      ],
      "name": "createPool",
      "outputs": [],
      "stateMutability": "nonpayable",
      "type": "function"
    },
    {
      "inputs": [
        {
          "internalType": "address",
          "name": "pool",
          "type": "address"
        }
      ],
      "name": "created",
      "outputs": [
        {
          "internalType": "bool",
          "name": "",
          "type": "bool"
        }
      ],
      "stateMutability": "view",
      "type": "function"
    },
    {
      "inputs": [
        {
          "internalType": "address",
          "name": "_initialOwner",
          "type": "address"
        },
        {
          "internalType": "address",
          "name": "_registry",
          "type": "address"
        },
        {
          "internalType": "bytes32[]",
          "name": "_extensions",
          "type": "bytes32[]"
        },
        {
          "internalType": "bytes[]",
          "name": "_data",
          "type": "bytes[]"
        },
        {
          "internalType": "uint256",
          "name": "_salt",
          "type": "uint256"
        }
      ],
      "name": "getAddress",
      "outputs": [
        {
          "internalType": "address",
          "name": "",
          "type": "address"
        }
      ],
      "stateMutability": "view",
      "type": "function"
    },
    {
      "inputs": [],
      "name": "owner",
      "outputs": [
        {
          "internalType": "address",
          "name": "",
          "type": "address"
        }
      ],
      "stateMutability": "view",
      "type": "function"
    },
    {
      "inputs": [],
      "name": "proxiableUUID",
      "outputs": [
        {
          "internalType": "bytes32",
          "name": "",
          "type": "bytes32"
        }
      ],
      "stateMutability": "view",
      "type": "function"
    },
    {
      "inputs": [],
      "name": "renounceOwnership",
      "outputs": [],
      "stateMutability": "nonpayable",
      "type": "function"
    },
    {
      "inputs": [
        {
          "internalType": "address",
          "name": "newOwner",
          "type": "address"
        }
      ],
      "name": "transferOwnership",
      "outputs": [],
      "stateMutability": "nonpayable",
      "type": "function"
    },
    {
      "inputs": [
        {
          "internalType": "address",
          "name": "newImplementation",
          "type": "address"
        },
        {
          "internalType": "bytes",
          "name": "data",
          "type": "bytes"
        }
      ],
      "name": "upgradeToAndCall",
      "outputs": [],
      "stateMutability": "payable",
      "type": "function"
    }
  ],
  "numDeployments": 6,
  "bytecode": "0x60a0806040523460295730608052611378908161002f823960805181818161053301526108a30152f35b600080fdfe6080604052600436101561001257600080fd5b60003560e01c80633368f9ec146100c75780633a98159f146100c25780634f1ef286146100bd57806352d1902d146100b857806359659e90146100b3578063715018a6146100ae5780638da5cb5b146100a9578063ad3cb1cc146100a4578063af3ffc4d1461009f578063d42efd831461009a5763f2fde38b1461009557600080fd5b610835565b6107f6565b610741565b6106e2565b610654565b6105bb565b610594565b610518565b61049e565b6103b5565b6100fd565b600435906001600160a01b03821682036100e257565b600080fd5b602435906001600160a01b03821682036100e257565b346100e25760403660031901126100e2576101166100cc565b61011e6100e7565b7ff0c57e16840df040f15088dc2f81fe391c3923bec73e23a9662efc9c229c6a0054919067ffffffffffffffff61016560ff604086901c16159467ffffffffffffffff1690565b16801590816102fe575b60011490816102f4575b1590816102eb575b506102da576101eb91836101e2600167ffffffffffffffff197ff0c57e16840df040f15088dc2f81fe391c3923bec73e23a9662efc9c229c6a005416177ff0c57e16840df040f15088dc2f81fe391c3923bec73e23a9662efc9c229c6a0055565b6102755761085e565b6101f157005b61024668ff0000000000000000197ff0c57e16840df040f15088dc2f81fe391c3923bec73e23a9662efc9c229c6a0054167ff0c57e16840df040f15088dc2f81fe391c3923bec73e23a9662efc9c229c6a0055565b604051600181527fc7f505b2f371ae2175ee4913f4499e1f2633a7b5936321eed1cdaeb6115181d290602090a1005b6102d56801000000000000000068ff0000000000000000197ff0c57e16840df040f15088dc2f81fe391c3923bec73e23a9662efc9c229c6a005416177ff0c57e16840df040f15088dc2f81fe391c3923bec73e23a9662efc9c229c6a0055565b61085e565b63f92ee8a960e01b60005260046000fd5b90501538610181565b303b159150610179565b84915061016f565b9181601f840112156100e25782359167ffffffffffffffff83116100e2576020808501948460051b0101116100e257565b60a06003198201126100e2576004356001600160a01b03811681036100e257916024356001600160a01b03811681036100e2579160443567ffffffffffffffff81116100e2578161038a91600401610306565b929092916064359067ffffffffffffffff82116100e2576103ad91600401610306565b909160843590565b346100e2576104416001600160a01b03806103e26103e76103d536610337565b9795949094939193610b64565b610be6565b6020815191012060405190602082019260ff60f81b84523060601b6021840152603583015260558201526055815261042060758261045b565b5190201616604051918291829190916001600160a01b036020820193169052565b0390f35b634e487b7160e01b600052604160045260246000fd5b90601f8019910116810190811067ffffffffffffffff82111761047d57604052565b610445565b67ffffffffffffffff811161047d57601f01601f191660200190565b60403660031901126100e2576104b26100cc565b6024359067ffffffffffffffff82116100e257366023830112156100e2578160040135906104df82610482565b916104ed604051938461045b565b80835236602482860101116100e257602081600092602461051697018387013784010152610897565b005b346100e25760003660031901126100e2576001600160a01b037f00000000000000000000000000000000000000000000000000000000000000001630036105835760206040517f360894a13ba1a3210667c828492db98dca3e2076cc3735a920a3ca505d382bbc8152f35b63703e46dd60e11b60005260046000fd5b346100e25760003660031901126100e25760206001600160a01b0360005416604051908152f35b346100e25760003660031901126100e2576105d4610c76565b60006001600160a01b037f9016d09d72d40fdae2fd8ceac6b6234c7706214fd39c1cd1e609a0528c199300546001600160a01b031981167f9016d09d72d40fdae2fd8ceac6b6234c7706214fd39c1cd1e609a0528c19930055167f8be0079c531659141344cd1fd0a4f28419497f9722a3daafe3b4186f6b6457e08280a3005b346100e25760003660031901126100e25760206001600160a01b037f9016d09d72d40fdae2fd8ceac6b6234c7706214fd39c1cd1e609a0528c1993005416604051908152f35b60005b8381106106ad5750506000910152565b818101518382015260200161069d565b906020916106d68151809281855285808601910161069a565b601f01601f1916010190565b346100e25760003660031901126100e2576104416040805190610705818361045b565b600582527f352e302e300000000000000000000000000000000000000000000000000000006020830152519182916020835260208301906106bd565b346100e25761074f36610337565b6107666103e2838587898b8d9c9a989b999c610b64565b6020815191016000f5803b156100e2577f8ddf34ddd96931cdf83e601e01b38725f5ca889ae6635fe4dd7f15a65d0af67e936001600160a01b036107f19216958660005260016020526040600020600160ff198254161790556001600160a01b03806107df6040519788976040895260408901916109d9565b93868503602088015216991697610a37565b0390a4005b346100e25760203660031901126100e2576001600160a01b036108176100cc565b166000526001602052602060ff604060002054166040519015158152f35b346100e25760203660031901126100e2576105166108516100cc565b610859610c76565b610abe565b9061087b6001600160a01b0392610873610cbe565b610859610cbe565b610883610cbe565b166001600160a01b03196000541617600055565b90916001600160a01b037f0000000000000000000000000000000000000000000000000000000000000000168030149081156109a4575b50610583576108db610c76565b6040516352d1902d60e01b8152926020846004816001600160a01b0387165afa60009481610973575b5061092757634c9c8ce360e01b6000526001600160a01b03831660045260246000fd5b90917f360894a13ba1a3210667c828492db98dca3e2076cc3735a920a3ca505d382bbc840361095d5761095b929350610cfe565b565b632a87526960e21b600052600484905260246000fd5b61099691955060203d60201161099d575b61098e818361045b565b810190610c67565b9338610904565b503d610984565b90506001600160a01b037f360894a13ba1a3210667c828492db98dca3e2076cc3735a920a3ca505d382bbc54161415386108ce565b90918281527f07ffffffffffffffffffffffffffffffffffffffffffffffffffffffffffffff83116100e25760209260051b809284830137010190565b908060209392818452848401376000828201840152601f01601f1916010190565b90602083828152019060208160051b85010193836000915b838310610a5f5750505050505090565b909192939495601f198282030186528635601e19843603018112156100e2578301906020823592019167ffffffffffffffff81116100e25780360383136100e257610ab06020928392600195610a16565b980196019493019190610a4f565b6001600160a01b03168015610b4e576001600160a01b037f9016d09d72d40fdae2fd8ceac6b6234c7706214fd39c1cd1e609a0528c19930054826001600160a01b03198216177f9016d09d72d40fdae2fd8ceac6b6234c7706214fd39c1cd1e609a0528c19930055167f8be0079c531659141344cd1fd0a4f28419497f9722a3daafe3b4186f6b6457e0600080a3565b631e4fbdf760e01b600052600060045260246000fd5b9294610bac610bbe936001600160a01b039788610bcc98956040519a8b996348cbb4eb60e11b60208c01521660248a01521660448801526080606488015260a48701916109d9565b84810360231901608486015291610a37565b03601f19810183528261045b565b90565b90610be26020928281519485920161069a565b0190565b610bcc610c5e91610bbe6104d291602060405193610c068282018661045b565b80855281850190610e718239610c4c6001600160a01b0360005416610c3e6040519586928684015260408084015260608301906106bd565b03601f19810185528461045b565b6040519687955180928488019061069a565b84010190610bcf565b908160209103126100e2575190565b6001600160a01b037f9016d09d72d40fdae2fd8ceac6b6234c7706214fd39c1cd1e609a0528c19930054163303610ca957565b63118cdaa760e01b6000523360045260246000fd5b60ff7ff0c57e16840df040f15088dc2f81fe391c3923bec73e23a9662efc9c229c6a005460401c1615610ced57565b631afcd79f60e31b60005260046000fd5b90813b15610db2576001600160a01b038216806001600160a01b03197f360894a13ba1a3210667c828492db98dca3e2076cc3735a920a3ca505d382bbc5416177f360894a13ba1a3210667c828492db98dca3e2076cc3735a920a3ca505d382bbc557fbc7cd75a20ee27fd9adebab32041f755214dbc6bffa90cc0225b39da2e5c2d3b600080a2805115610d9857610d9591610dd0565b50565b505034610da157565b63b398979f60e01b60005260046000fd5b6001600160a01b0382634c9c8ce360e01b6000521660045260246000fd5b600080610bcc93602081519101845af43d15610e0e573d91610df183610482565b92610dff604051948561045b565b83523d6000602085013e610e12565b6060915b90610e385750805115610e2757805190602001fd5b63d6bda27560e01b60005260046000fd5b81511580610e67575b610e49575090565b6001600160a01b0390639996b31560e01b6000521660045260246000fd5b50803b15610e4156fe60a0806040526104d2803803809161001782856102b7565b833981016040828203126101f35761002e826102f0565b602083015190926001600160401b0382116101f3570181601f820112156101f35780519061005b82610304565b9261006960405194856102b7565b828452602083830101116101f35760005b8281106102a2575050602060009183010152813b15610280577fa3f0ad74e5423aebfd80d3ef4346578335a9a72aeaee59ff6cb3582b35133d5080546001600160a01b0319166001600160a01b038416908117909155604051635c60da1b60e01b8152909190602081600481865afa90811561020057600091610246575b50803b156102255750817f1cf3b03a6cf19fa2baba4df148e9dcabedea7f8a5c07840e207e5c089be95d3e600080a280511561020c57602060049260405193848092635c60da1b60e01b82525afa918215610200576000926101b9575b509060008083602061019595519101845af43d156101b1573d9161017883610304565b9261018660405194856102b7565b83523d6000602085013e61031f565b505b6080526040516101519081610381823960805181602d0152f35b60609161031f565b91506020823d6020116101f8575b816101d4602093836102b7565b810103126101f3576000806101eb610195946102f0565b935050610155565b600080fd5b3d91506101c7565b6040513d6000823e3d90fd5b505034156101975763b398979f60e01b60005260046000fd5b634c9c8ce360e01b60009081526001600160a01b0391909116600452602490fd5b90506020813d602011610278575b81610261602093836102b7565b810103126101f357610272906102f0565b386100f8565b3d9150610254565b50631933b43b60e21b60009081526001600160a01b0391909116600452602490fd5b8060208092840101518282870101520161007a565b601f909101601f19168101906001600160401b038211908210176102da57604052565b634e487b7160e01b600052604160045260246000fd5b51906001600160a01b03821682036101f357565b6001600160401b0381116102da57601f01601f191660200190565b90610345575080511561033457805190602001fd5b63d6bda27560e01b60005260046000fd5b81511580610377575b610356575090565b639996b31560e01b60009081526001600160a01b0391909116600452602490fd5b50803b1561034e56fe6080604052635c60da1b60e01b6080526020608060048173ffffffffffffffffffffffffffffffffffffffff7f0000000000000000000000000000000000000000000000000000000000000000165afa80156100ba57600090156100fa575060203d6020116100b3575b601f19601f820116608001906080821067ffffffffffffffff83111761009d57610098916040526080016100c6565b6100fa565b634e487b7160e01b600052604160045260246000fd5b503d610069565b6040513d6000823e3d90fd5b602090607f1901126100f55760805173ffffffffffffffffffffffffffffffffffffffff811681036100f55790565b600080fd5b60008091368280378136915af43d6000803e15610116573d6000f35b3d6000fdfea26469706673582212204b5715d253ff65afc1238882d328ad1555fb646290a0c45bd9f02c1898275c5e64736f6c634300081d0033a264697066735822122076af87ea7dbc8b2abbc92b98bdae3ec3884e4a77a97f9d87c34c3f76a8b49e3a64736f6c634300081d0033"
}