{
  "address": "0xA1B80af7772729b4f7626fAed4cEcDA98B9d3f44",
  "abi": [
    {
      "inputs": [],
      "stateMutability": "nonpayable",
      "type": "constructor"
    },
    {
      "inputs": [],
      "name": "InvalidInitialization",
      "type": "error"
    },
    {
      "inputs": [],
      "name": "MerkleProofInvalidMultiproof",
      "type": "error"
    },
    {
      "inputs": [],
      "name": "NotInitializing",
      "type": "error"
    },
    {
      "inputs": [
        {
          "internalType": "address",
          "name": "owner",
          "type": "address"
        }
      ],
      "name": "OwnableInvalidOwner",
      "type": "error"
    },
    {
      "inputs": [
        {
          "internalType": "address",
          "name": "account",
          "type": "address"
        }
      ],
      "name": "OwnableUnauthorizedAccount",
      "type": "error"
    },
    {
      "anonymous": false,
      "inputs": [
        {
          "indexed": false,
          "internalType": "uint64",
          "name": "version",
          "type": "uint64"
        }
      ],
      "name": "Initialized",
      "type": "event"
    },
    {
      "anonymous": false,
      "inputs": [
        {
          "indexed": true,
          "internalType": "address",
          "name": "previousOwner",
          "type": "address"
        },
        {
          "indexed": true,
          "internalType": "address",
          "name": "newOwner",
          "type": "address"
        }
      ],
      "name": "OwnershipTransferred",
      "type": "event"
    },
    {
      "inputs": [
        {
          "internalType": "address",
          "name": "_initialOwner",
          "type": "address"
        },
        {
          "internalType": "bytes32",
          "name": "_allocationRoot",
          "type": "bytes32"
        }
      ],
      "name": "__Pool_init",
      "outputs": [],
      "stateMutability": "nonpayable",
      "type": "function"
    },
    {
      "inputs": [
        {
          "internalType": "address[]",
          "name": "_receivers",
          "type": "address[]"
        },
        {
          "internalType": "address",
          "name": "currency",
          "type": "address"
        },
        {
          "internalType": "uint256[]",
          "name": "_amounts",
          "type": "uint256[]"
        }
      ],
      "name": "batchDeposit",
      "outputs": [],
      "stateMutability": "payable",
      "type": "function"
    },
    {
      "inputs": [],
      "name": "owner",
      "outputs": [
        {
          "internalType": "address",
          "name": "",
          "type": "address"
        }
      ],
      "stateMutability": "view",
      "type": "function"
    },
    {
      "inputs": [],
      "name": "renounceOwnership",
      "outputs": [],
      "stateMutability": "nonpayable",
      "type": "function"
    },
    {
      "inputs": [
        {
          "internalType": "address",
          "name": "newOwner",
          "type": "address"
        }
      ],
      "name": "transferOwnership",
      "outputs": [],
      "stateMutability": "nonpayable",
      "type": "function"
    },
    {
      "inputs": [
        {
          "internalType": "address",
          "name": "recipient",
          "type": "address"
        },
        {
          "internalType": "address",
          "name": "currency",
          "type": "address"
        },
        {
          "components": [
            {
              "components": [
                {
                  "internalType": "uint160",
                  "name": "id",
                  "type": "uint160"
                },
                {
                  "internalType": "uint32",
                  "name": "version",
                  "type": "uint32"
                },
                {
                  "internalType": "uint8",
                  "name": "allocationType",
                  "type": "uint8"
                },
                {
                  "internalType": "uint160",
                  "name": "target",
                  "type": "uint160"
                },
                {
                  "internalType": "uint160",
                  "name": "recipient",
                  "type": "uint160"
                },
                {
                  "internalType": "uint256",
                  "name": "amountOrShare",
                  "type": "uint256"
                },
                {
                  "internalType": "uint256",
                  "name": "position",
                  "type": "uint256"
                },
                {
                  "internalType": "uint256",
                  "name": "timespan",
                  "type": "uint256"
                }
              ],
              "internalType": "struct Allocation.Data[][]",
              "name": "allocations",
              "type": "tuple[][]"
            },
            {
              "internalType": "uint256[]",
              "name": "amounts",
              "type": "uint256[]"
            }
          ],
          "internalType": "struct Allocation.BatchRequest",
          "name": "request",
          "type": "tuple"
        },
        {
          "components": [
            {
              "internalType": "bytes32[]",
              "name": "value",
              "type": "bytes32[]"
            },
            {
              "internalType": "bool[]",
              "name": "flags",
              "type": "bool[]"
            }
          ],
          "internalType": "struct MerkleTree.MultiProof",
          "name": "proof",
          "type": "tuple"
        }
      ],
      "name": "withdraw",
      "outputs": [
        {
          "internalType": "bool",
          "name": "",
          "type": "bool"
        }
      ],
      "stateMutability": "nonpayable",
      "type": "function"
    }
  ],
  "numDeployments": 3,
  "bytecode": "0x608080604052346100b8577ff0c57e16840df040f15088dc2f81fe391c3923bec73e23a9662efc9c229c6a009081549060ff8260401c166100a957506001600160401b036002600160401b031982821601610064575b60405161121c90816100be8239f35b6001600160401b031990911681179091556040519081527fc7f505b2f371ae2175ee4913f4499e1f2633a7b5936321eed1cdaeb6115181d290602090a1388080610055565b63f92ee8a960e01b8152600490fd5b600080fdfe6080604052600436101561001257600080fd5b60003560e01c8063676ae78f14610758578063715018a6146106d05780638da5cb5b1461068a578063cb80b16b1461054c578063f2fde38b146105215763ffecd5861461005e57600080fd5b346103e5576003196080368201126103e557610078610828565b610080610812565b916044359067ffffffffffffffff8083116103e55760408284360301126103e557606435116103e557604090606435360301126103e5576000926100c381610ff7565b906100d160048401806109ff565b80915060011b908082046002149015171561050b576100ef90610a98565b946000926000915b61010460048701806109ff565b9050831015610421576101248361011e60048901806109ff565b90610aca565b156103465761013290610b51565b156103e5576101488361011e60048901806109ff565b156103465761016160606001600160a01b039201610b0f565b1615806103ea575b6103e5576101ae6101818461011e60048a01806109ff565b8661019c8761019660248d018d6004016109ff565b9061096c565b35916101a88688610b23565b93610da1565b156103e5576101c48361011e60048901806109ff565b91909115610346576101e08461019660248a018a6004016109ff565b356001600160a01b0386166000526001602052604060002060808401906001600160a01b0361020e83610b0f565b16600052602052604060002061022583825461097c565b90556001600160a01b038716600052600360205260406000206001600160a01b0361024f83610b0f565b166000526020524260406000205561026684610d49565b61035c575b505061028d91506102868461019660248a018a6004016109ff565b359061097c565b9161029f8161011e60048901806109ff565b15610346576102ad90610c97565b6102c06102ba878461097c565b8a610b3d565b526102d28161011e60048901806109ff565b15610346576102e090610d5f565b6102f4575b6102ee9061095d565b916100f7565b936102fe9061095d565b936103108161011e60048901806109ff565b600192919210156103465761032b6101006102ee9301610c97565b61033e610338888461097c565b8b610b3d565b5290506102e5565b634e487b7160e01b600052603260045260246000fd5b6001600160a01b03871660005260026020526001600160a01b03610384604060002092610b0f565b16600052602052604060002061039c60005442610b23565b60e0850135156103cf5760e061028d95013590046000526020526103c6604060002091825461097c565b9055388061026b565b634e487b7160e01b600052601260045260246000fd5b600080fd5b506103fc8361011e60048901806109ff565b1561034657608061040d9101610b0f565b6001600160a01b0380891691161415610169565b838891886104486064356004019461043986806109ff565b929096602460643501906109ff565b90926004549361045782610a80565b916104656040519384610a48565b8083526020998a84019160051b8101913683116103e5578b91905b8382106104fc575050505061049483610a80565b926104a26040519485610a48565b8084528984019060051b8201913683116103e557905b8282106104e457505050906104cd9291611077565b036103e5576104db92610989565b60405160018152f35b813580151581036103e5578152908a01908a016104b8565b81358152908201908201610480565b634e487b7160e01b600052601160045260246000fd5b346103e55760203660031901126103e55761054a61053d610828565b61054561083e565b610889565b005b346103e55760403660031901126103e557610565610828565b7ff0c57e16840df040f15088dc2f81fe391c3923bec73e23a9662efc9c229c6a0090815460ff8160401c16159167ffffffffffffffff821680159081610682575b6001149081610678575b15908161066f575b5061065d5767ffffffffffffffff19821660011784556105e9918361063e575b506105e161091c565b61054561091c565b6105f161091c565b4260005560243560045561060157005b68ff00000000000000001981541690557fc7f505b2f371ae2175ee4913f4499e1f2633a7b5936321eed1cdaeb6115181d2602060405160018152a1005b68ffffffffffffffffff191668010000000000000001178455846105d8565b60405163f92ee8a960e01b8152600490fd5b905015856105b8565b303b1591506105b0565b8491506105a6565b346103e55760003660031901126103e55760206001600160a01b037f9016d09d72d40fdae2fd8ceac6b6234c7706214fd39c1cd1e609a0528c1993005416604051908152f35b346103e55760003660031901126103e5576106e961083e565b60006001600160a01b037f9016d09d72d40fdae2fd8ceac6b6234c7706214fd39c1cd1e609a0528c19930080549073ffffffffffffffffffffffffffffffffffffffff1982169055167f8be0079c531659141344cd1fd0a4f28419497f9722a3daafe3b4186f6b6457e08280a3005b60603660031901126103e55767ffffffffffffffff6004358181116103e5576107859036906004016107e1565b905061078f610812565b916044359081116103e5576107a89036906004016107e1565b6000939091845b8486106107b857005b6107ca6107db9161028688878661096c565b956107d6873086610989565b61095d565b946107af565b9181601f840112156103e55782359167ffffffffffffffff83116103e5576020808501948460051b0101116103e557565b602435906001600160a01b03821682036103e557565b600435906001600160a01b03821682036103e557565b6001600160a01b037f9016d09d72d40fdae2fd8ceac6b6234c7706214fd39c1cd1e609a0528c1993005416330361087157565b60405163118cdaa760e01b8152336004820152602490fd5b6001600160a01b03809116908115610903577f9016d09d72d40fdae2fd8ceac6b6234c7706214fd39c1cd1e609a0528c1993008054908373ffffffffffffffffffffffffffffffffffffffff198316179055167f8be0079c531659141344cd1fd0a4f28419497f9722a3daafe3b4186f6b6457e0600080a3565b604051631e4fbdf760e01b815260006004820152602490fd5b60ff7ff0c57e16840df040f15088dc2f81fe391c3923bec73e23a9662efc9c229c6a005460401c161561094b57565b604051631afcd79f60e31b8152600490fd5b600019811461050b5760010190565b91908110156103465760051b0190565b9190820180921161050b57565b6001600160a01b0381166109b65750600080809381935af1156109a857565b63f4b3b1bc6000526004601cfd5b60109260209260145260345260446000938480936fa9059cbb00000000000000000000000082525af13d1560018351141716156109f257603452565b63f27f64e490526004601cfd5b903590601e19813603018212156103e5570180359067ffffffffffffffff82116103e557602001918160051b360383136103e557565b8181029291811591840414171561050b57565b90601f8019910116810190811067ffffffffffffffff821117610a6a57604052565b634e487b7160e01b600052604160045260246000fd5b67ffffffffffffffff8111610a6a5760051b60200190565b90610aa282610a80565b610aaf6040519182610a48565b8281528092610ac0601f1991610a80565b0190602036910137565b91908110156103465760051b81013590601e19813603018212156103e557019081359167ffffffffffffffff83116103e5576020018260081b360381136103e5579190565b356001600160a01b03811681036103e55790565b9190820391821161050b57565b8051156103465760200190565b80518210156103465760209160051b010190565b604081013560ff811681036103e557600f1615801590610c64575b610bf3576001600160a01b0380610b8283610b0f565b16158015610c58575b610c5157606082019080610b9e83610b0f565b16159182610c3a575b8215610c05575b5050610bf357610bbd81610d49565b80610bf9575b610bf357610bd081610d5f565b9081610be6575b50610be157600190565b600090565b60c0915001351538610bd7565b50600090565b5060e081013515610bc3565b819250610c1190610b0f565b1615159081610c23575b503880610bae565b9050610c3160808301610b0f565b16151538610c1b565b915080610c4960808501610b0f565b161591610ba7565b5050600090565b5060a082013515610b8b565b50610c6e81610d75565b8015610b6c5750610c7e81610d8b565b610b6c565b35906001600160a01b03821682036103e557565b60405160208101916001600160a01b0380610cb183610c83565b168452602082013563ffffffff81168091036103e5576040840152604082013560ff81168091036103e557606084015280610cee60608401610c83565b166080840152610d0060808301610c83565b1660a083015260a081013560c083015260c081013560e083015260e0610100910135818301528152610120810181811067ffffffffffffffff821117610a6a5760405251902090565b6040013560ff811681036103e557600216151590565b6040013560ff811681036103e557600116151590565b6040013560ff811681036103e557600816151590565b6040013560ff811681036103e557600416151590565b90939293848410610fc757600281118015610fd1575b610fc7578015908161034657610dcc83610d5f565b610e87575b5061034657610e4292600090610de683610d75565b15610e6657610dfb915060a083013590610a35565b915b610e0682610d49565b610e4c575b6001600160a01b038091166000526001602052610e2f608060406000209301610b0f565b1660005260205260406000205490610b23565b10610be157600190565b91610e6090610e5a83610fdb565b90610a35565b91610e0b565b50610e7082610d8b565b15610e81575060a081013591610dfd565b91610dfd565b6000915060c0830135600019810191908211610fb35760011015610f9f576101008301906101c084013503610f9657610f2490610ec381610d75565b15610f7757610ed76101a085013587610a35565b6001600160a01b0391828716928386526001602052604086209061018088019181610f0184610b0f565b168852602052604087205494610f1684610d49565b610f36575b50505050610b23565b610f2e5738610dd1565b935050505090565b90919293945086526002602052610f506040872092610b0f565b168552602052610f636040852091610fdb565b845260205260408320549038808080610f1b565b610f8081610d8b565b15610f90576101a0840135610ed7565b82610ed7565b50935050505090565b634e487b7160e01b82526032600452602482fd5b634e487b7160e01b83526011600452602483fd5b5050505050600090565b5060018110610db7565b60e0610fe960005442610b23565b9101359081156103cf570490565b6001600160a01b03168061100a57504790565b6020602491604051928380926370a0823160e01b82523060048301525afa90811561106b5760009161103a575090565b906020823d8211611063575b8161105360209383610a48565b8101031261106057505190565b80fd5b3d9150611046565b6040513d6000823e3d90fd5b9180519183519181519461108b848661097c565b600187019081881161050b57036110db576110a586610a98565b94600080948195825b8a811061110f575050881591506110ed905057505050036110db576110d7916000190190610b3d565b5190565b604051631a8a024960e11b8152600490fd5b9195509350159150611105905057506110d790610b30565b6110d79150610b30565b61118690858510156111cd5761112e6111278661095d565b9589610b3d565b515b61113a8286610b3d565b51156111b3578686101561119a5761115b6111548761095d565b968a610b3d565b515b905b60008282101561118b575060005260205260406000205b611180828d610b3d565b5261095d565b6110ae565b90604092825260205220611176565b6111ad6111a68561095d565b948d610b3d565b5161115d565b6111c66111bf8b61095d565b9a89610b3d565b519061115f565b6111e06111d98461095d565b938c610b3d565b5161113056fea264697066735822122028c510fd3c71e448ab9704b1fc7fc0dff26d2e9d959e31e5f87ce83bd47f80d464736f6c63430008140033"
}