{
  "address": "0xbC4BFa087473C516A04D720Ac6301BF8981177FA",
  "abi": [
    {
      "inputs": [],
      "stateMutability": "nonpayable",
      "type": "constructor"
    },
    {
      "inputs": [
        {
          "internalType": "address",
          "name": "target",
          "type": "address"
        }
      ],
      "name": "AddressEmptyCode",
      "type": "error"
    },
    {
      "inputs": [
        {
          "internalType": "address",
          "name": "implementation",
          "type": "address"
        }
      ],
      "name": "ERC1967InvalidImplementation",
      "type": "error"
    },
    {
      "inputs": [],
      "name": "ERC1967NonPayable",
      "type": "error"
    },
    {
      "inputs": [],
      "name": "FailedInnerCall",
      "type": "error"
    },
    {
      "inputs": [],
      "name": "InvalidInitialization",
      "type": "error"
    },
    {
      "inputs": [],
      "name": "NotInitializing",
      "type": "error"
    },
    {
      "inputs": [
        {
          "internalType": "address",
          "name": "owner",
          "type": "address"
        }
      ],
      "name": "OwnableInvalidOwner",
      "type": "error"
    },
    {
      "inputs": [
        {
          "internalType": "address",
          "name": "account",
          "type": "address"
        }
      ],
      "name": "OwnableUnauthorizedAccount",
      "type": "error"
    },
    {
      "inputs": [],
      "name": "UUPSUnauthorizedCallContext",
      "type": "error"
    },
    {
      "inputs": [
        {
          "internalType": "bytes32",
          "name": "slot",
          "type": "bytes32"
        }
      ],
      "name": "UUPSUnsupportedProxiableUUID",
      "type": "error"
    },
    {
      "anonymous": false,
      "inputs": [
        {
          "indexed": true,
          "internalType": "address",
          "name": "pool",
          "type": "address"
        },
        {
          "indexed": false,
          "internalType": "address",
          "name": "owner",
          "type": "address"
        },
        {
          "indexed": false,
          "internalType": "bytes32",
          "name": "root",
          "type": "bytes32"
        }
      ],
      "name": "CreatePool",
      "type": "event"
    },
    {
      "anonymous": false,
      "inputs": [
        {
          "indexed": false,
          "internalType": "uint64",
          "name": "version",
          "type": "uint64"
        }
      ],
      "name": "Initialized",
      "type": "event"
    },
    {
      "anonymous": false,
      "inputs": [
        {
          "indexed": true,
          "internalType": "address",
          "name": "previousOwner",
          "type": "address"
        },
        {
          "indexed": true,
          "internalType": "address",
          "name": "newOwner",
          "type": "address"
        }
      ],
      "name": "OwnershipTransferred",
      "type": "event"
    },
    {
      "anonymous": false,
      "inputs": [
        {
          "indexed": true,
          "internalType": "address",
          "name": "implementation",
          "type": "address"
        }
      ],
      "name": "Upgraded",
      "type": "event"
    },
    {
      "inputs": [],
      "name": "UPGRADE_INTERFACE_VERSION",
      "outputs": [
        {
          "internalType": "string",
          "name": "",
          "type": "string"
        }
      ],
      "stateMutability": "view",
      "type": "function"
    },
    {
      "inputs": [
        {
          "internalType": "address",
          "name": "_owner",
          "type": "address"
        },
        {
          "internalType": "address",
          "name": "_beacon",
          "type": "address"
        }
      ],
      "name": "__PoolFactory_init",
      "outputs": [],
      "stateMutability": "nonpayable",
      "type": "function"
    },
    {
      "inputs": [],
      "name": "beacon",
      "outputs": [
        {
          "internalType": "address",
          "name": "",
          "type": "address"
        }
      ],
      "stateMutability": "view",
      "type": "function"
    },
    {
      "inputs": [
        {
          "internalType": "address",
          "name": "_initialOwner",
          "type": "address"
        },
        {
          "internalType": "bytes32",
          "name": "_root",
          "type": "bytes32"
        },
        {
          "internalType": "uint256",
          "name": "_salt",
          "type": "uint256"
        }
      ],
      "name": "createPool",
      "outputs": [],
      "stateMutability": "nonpayable",
      "type": "function"
    },
    {
      "inputs": [
        {
          "internalType": "address",
          "name": "_initialOwner",
          "type": "address"
        },
        {
          "internalType": "bytes32",
          "name": "_root",
          "type": "bytes32"
        },
        {
          "internalType": "uint256",
          "name": "_salt",
          "type": "uint256"
        }
      ],
      "name": "getAddress",
      "outputs": [
        {
          "internalType": "address",
          "name": "",
          "type": "address"
        }
      ],
      "stateMutability": "view",
      "type": "function"
    },
    {
      "inputs": [],
      "name": "owner",
      "outputs": [
        {
          "internalType": "address",
          "name": "",
          "type": "address"
        }
      ],
      "stateMutability": "view",
      "type": "function"
    },
    {
      "inputs": [],
      "name": "proxiableUUID",
      "outputs": [
        {
          "internalType": "bytes32",
          "name": "",
          "type": "bytes32"
        }
      ],
      "stateMutability": "view",
      "type": "function"
    },
    {
      "inputs": [],
      "name": "renounceOwnership",
      "outputs": [],
      "stateMutability": "nonpayable",
      "type": "function"
    },
    {
      "inputs": [
        {
          "internalType": "address",
          "name": "newOwner",
          "type": "address"
        }
      ],
      "name": "transferOwnership",
      "outputs": [],
      "stateMutability": "nonpayable",
      "type": "function"
    },
    {
      "inputs": [
        {
          "internalType": "address",
          "name": "newImplementation",
          "type": "address"
        },
        {
          "internalType": "bytes",
          "name": "data",
          "type": "bytes"
        }
      ],
      "name": "upgradeToAndCall",
      "outputs": [],
      "stateMutability": "payable",
      "type": "function"
    }
  ],
  "numDeployments": 1,
  "bytecode": "0x60a080604052346100cc57306080527ff0c57e16840df040f15088dc2f81fe391c3923bec73e23a9662efc9c229c6a009081549060ff8260401c166100bd57506001600160401b036002600160401b031982821601610078575b60405161113390816100d282396080518181816104c3015261062f0152f35b6001600160401b031990911681179091556040519081527fc7f505b2f371ae2175ee4913f4499e1f2633a7b5936321eed1cdaeb6115181d290602090a1388080610059565b63f92ee8a960e01b8152600490fd5b600080fdfe608060405260043610156200001357600080fd5b6000803560e01c90816308cc2ccd14620000ce5750806323c0aac614620000c85780633368f9ec14620000c25780634f1ef28614620000bc57806352d1902d14620000b657806359659e9014620000b0578063715018a614620000aa5780638da5cb5b14620000a4578063ad3cb1cc146200009e5763f2fde38b146200009857600080fd5b62000849565b620007cf565b6200073b565b620006bb565b62000692565b62000612565b62000440565b6200024b565b620001c5565b346200016357620000df3662000199565b620000f5620000ef838562000bf2565b62000b4f565b60208151910185f590813b156200015f577f595dc58b445544a2bb0481b04e04cc98dd021b0fa8c62048c8941d5ff36434c591620001596001600160a01b0392604051938493169583602090939291936001600160a01b0360408201951681520152565b0390a280f35b8380fd5b80fd5b600435906001600160a01b03821682036200017d57565b600080fd5b602435906001600160a01b03821682036200017d57565b60609060031901126200017d576004356001600160a01b03811681036200017d57906024359060443590565b346200017d57620000ef620001e6620001de3662000199565b939162000bf2565b6020815191012060405190602082019260ff60f81b84523060601b60218401526035830152605582015260558152608081019080821067ffffffffffffffff83111762000245576020926001600160a01b039183604052519020168152f35b620003ea565b346200017d5760403660031901126200017d576200026862000166565b6200027262000182565b907ff0c57e16840df040f15088dc2f81fe391c3923bec73e23a9662efc9c229c6a00549167ffffffffffffffff60ff8460401c1615931680159081620003e1575b6001149081620003d6575b159081620003cc575b50620003ba577ff0c57e16840df040f15088dc2f81fe391c3923bec73e23a9662efc9c229c6a00805467ffffffffffffffff19166001179055620003119183620003785762000acd565b6200031857005b7ff0c57e16840df040f15088dc2f81fe391c3923bec73e23a9662efc9c229c6a00805468ff000000000000000019169055604051600181527fc7f505b2f371ae2175ee4913f4499e1f2633a7b5936321eed1cdaeb6115181d290602090a1005b7ff0c57e16840df040f15088dc2f81fe391c3923bec73e23a9662efc9c229c6a00805468ff000000000000000019166801000000000000000017905562000acd565b60405163f92ee8a960e01b8152600490fd5b90501538620002c7565b303b159150620002be565b849150620002b3565b634e487b7160e01b600052604160045260246000fd5b90601f8019910116810190811067ffffffffffffffff8211176200024557604052565b67ffffffffffffffff81116200024557601f01601f191660200190565b6040806003193601126200017d576200045862000166565b60243567ffffffffffffffff81116200017d57366023820112156200017d578060040135620004878162000423565b91620004968551938462000400565b81835236602483830101116200017d578160009260246020930183860137830101526001600160a01b03807f000000000000000000000000000000000000000000000000000000000000000016803014908115620005e3575b50620005d2576020600491620005046200087a565b85516352d1902d60e01b8152928391829087165afa600091816200059b575b5062000549578351634c9c8ce360e01b81526001600160a01b0384166004820152602490fd5b7f360894a13ba1a3210667c828492db98dca3e2076cc3735a920a3ca505d382bbc819392930362000582576200058083836200095d565b005b8351632a87526960e21b81526004810191909152602490fd5b620005c291925060203d8111620005ca575b620005b9818362000400565b8101906200094d565b903862000523565b503d620005ad565b835163703e46dd60e11b8152600490fd5b9050817f360894a13ba1a3210667c828492db98dca3e2076cc3735a920a3ca505d382bbc5416141538620004ef565b346200017d5760003660031901126200017d576001600160a01b037f0000000000000000000000000000000000000000000000000000000000000000163003620006805760206040517f360894a13ba1a3210667c828492db98dca3e2076cc3735a920a3ca505d382bbc8152f35b60405163703e46dd60e11b8152600490fd5b346200017d5760003660031901126200017d5760206001600160a01b0360005416604051908152f35b346200017d576000806003193601126200016357620006d96200087a565b806001600160a01b037f9016d09d72d40fdae2fd8ceac6b6234c7706214fd39c1cd1e609a0528c1993008054906001600160a01b031982169055167f8be0079c531659141344cd1fd0a4f28419497f9722a3daafe3b4186f6b6457e08280a380f35b346200017d5760003660031901126200017d5760206001600160a01b037f9016d09d72d40fdae2fd8ceac6b6234c7706214fd39c1cd1e609a0528c1993005416604051908152f35b60005b838110620007975750506000910152565b818101518382015260200162000786565b90602091620007c38151809281855285808601910162000783565b601f01601f1916010190565b346200017d5760003660031901126200017d57604051604081019080821067ffffffffffffffff83111762000245576200084591604052600581527f352e302e300000000000000000000000000000000000000000000000000000006020820152604051918291602083526020830190620007a8565b0390f35b346200017d5760203660031901126200017d57620005806200086a62000166565b620008746200087a565b620008c6565b6001600160a01b037f9016d09d72d40fdae2fd8ceac6b6234c7706214fd39c1cd1e609a0528c19930054163303620008ae57565b60405163118cdaa760e01b8152336004820152602490fd5b6001600160a01b0380911690811562000934577f9016d09d72d40fdae2fd8ceac6b6234c7706214fd39c1cd1e609a0528c199300805490836001600160a01b03198316179055167f8be0079c531659141344cd1fd0a4f28419497f9722a3daafe3b4186f6b6457e0600080a3565b604051631e4fbdf760e01b815260006004820152602490fd5b908160209103126200017d575190565b90813b15620009f8576001600160a01b0382167f360894a13ba1a3210667c828492db98dca3e2076cc3735a920a3ca505d382bbc816001600160a01b03198254161790557fbc7cd75a20ee27fd9adebab32041f755214dbc6bffa90cc0225b39da2e5c2d3b600080a2805115620009dc57620009d99162000a19565b50565b505034620009e657565b60405163b398979f60e01b8152600490fd5b604051634c9c8ce360e01b81526001600160a01b0383166004820152602490fd5b60008062000a5e93602081519101845af43d1562000a61573d9162000a3e8362000423565b9262000a4e604051948562000400565b83523d6000602085013e62000a65565b90565b6060915b9062000a8e575080511562000a7c57805190602001fd5b604051630a12f52160e11b8152600490fd5b8151158062000ac3575b62000aa1575090565b604051639996b31560e01b81526001600160a01b039091166004820152602490fd5b50803b1562000a98565b9062000aef6001600160a01b039262000ae562000b0d565b6200087462000b0d565b62000af962000b0d565b166001600160a01b03196000541617600055565b60ff7ff0c57e16840df040f15088dc2f81fe391c3923bec73e23a9662efc9c229c6a005460401c161562000b3d57565b604051631afcd79f60e31b8152600490fd5b60405162000bd59162000a5e9160209162000bb362000be56104d162000b788682018662000400565b8085528585019062000c2d823962000bc26001600160a01b0360005416946040519485918983019788526040808401526060830190620007a8565b03601f19810185528462000400565b6040519788955180928888019062000783565b8401915180938684019062000783565b0103808452018262000400565b60405163cb80b16b60e01b60208201526001600160a01b0391909116602482015260448082019290925290815262000a5e6064826200040056fe60a06040908082526104d1803803809161001982856102b4565b833981019082818303126102af57610030816102ed565b91602091828101519060018060401b0382116102af570181601f820112156102af5780519061005e82610301565b9261006b875194856102b4565b8284528483830101116102af57839060005b83811061029b57505060009183010152823b1561027b577fa3f0ad74e5423aebfd80d3ef4346578335a9a72aeaee59ff6cb3582b35133d5080546001600160a01b0319166001600160a01b038581169182179092558551635c60da1b60e01b8082529193928582600481885afa91821561027057600092610239575b50813b156102205750508551837f1cf3b03a6cf19fa2baba4df148e9dcabedea7f8a5c07840e207e5c089be95d3e600080a282511561020157508390600487518095819382525afa9182156101f6576000926101b2575b5090600080838561018f9695519101845af4903d156101a9573d61017381610301565b90610180885192836102b4565b8152600081943d92013e61031c565b505b60805251610151908161038082396080518160180152f35b6060925061031c565b90918382813d83116101ef575b6101c981836102b4565b810103126101ec5750906000806101e361018f95946102ed565b93945050610150565b80fd5b503d6101bf565b85513d6000823e3d90fd5b9350505050346102115750610191565b63b398979f60e01b8152600490fd5b8751634c9c8ce360e01b81529116600482015260249150fd5b90918682813d8311610269575b61025081836102b4565b810103126101ec5750610262906102ed565b90386100f9565b503d610246565b88513d6000823e3d90fd5b8351631933b43b60e21b81526001600160a01b0384166004820152602490fd5b81810183015185820184015285920161007d565b600080fd5b601f909101601f19168101906001600160401b038211908210176102d757604052565b634e487b7160e01b600052604160045260246000fd5b51906001600160a01b03821682036102af57565b6001600160401b0381116102d757601f01601f191660200190565b90610343575080511561033157805190602001fd5b604051630a12f52160e11b8152600490fd5b81511580610376575b610354575090565b604051639996b31560e01b81526001600160a01b039091166004820152602490fd5b50803b1561034c56fe60806040819052635c60da1b60e01b81526020816004817f000000000000000000000000000000000000000000000000000000000000000073ffffffffffffffffffffffffffffffffffffffff165afa9081156100bc57600091610064575b506100c8565b6020903d82116100b4575b601f8201601f1916810167ffffffffffffffff8111828210176100a05761009a9350604052016100e7565b3861005e565b634e487b7160e01b84526041600452602484fd5b3d915061006f565b6040513d6000823e3d90fd5b6000808092368280378136915af43d82803e156100e3573d90f35b3d90fd5b602090607f1901126101165760805173ffffffffffffffffffffffffffffffffffffffff811681036101165790565b600080fdfea26469706673582212208651eaed01fd6ae77a864df1b33ae50eb70ade6f406b956c554d45cf3f87fdfc64736f6c63430008140033a2646970667358221220b961e77d81a0bda5b1267fd5738ae26b281806a0487d9809171f4900d328bfa464736f6c63430008140033"
}