{
  "address": "0xb8516ACD10afeF5c04BdE6b1E86B25f094E45B06",
  "abi": [
    {
      "inputs": [
        {
          "internalType": "address",
          "name": "target",
          "type": "address"
        }
      ],
      "name": "AddressEmptyCode",
      "type": "error"
    },
    {
      "inputs": [
        {
          "internalType": "address",
          "name": "implementation",
          "type": "address"
        }
      ],
      "name": "ERC1967InvalidImplementation",
      "type": "error"
    },
    {
      "inputs": [],
      "name": "ERC1967NonPayable",
      "type": "error"
    },
    {
      "inputs": [
        {
          "internalType": "bytes32",
          "name": "key",
          "type": "bytes32"
        }
      ],
      "name": "EnumerableMapNonexistentKey",
      "type": "error"
    },
    {
      "inputs": [],
      "name": "FailedCall",
      "type": "error"
    },
    {
      "inputs": [],
      "name": "InvalidInitialization",
      "type": "error"
    },
    {
      "inputs": [],
      "name": "NotInitializing",
      "type": "error"
    },
    {
      "inputs": [
        {
          "internalType": "address",
          "name": "owner",
          "type": "address"
        }
      ],
      "name": "OwnableInvalidOwner",
      "type": "error"
    },
    {
      "inputs": [
        {
          "internalType": "address",
          "name": "account",
          "type": "address"
        }
      ],
      "name": "OwnableUnauthorizedAccount",
      "type": "error"
    },
    {
      "inputs": [],
      "name": "UUPSUnauthorizedCallContext",
      "type": "error"
    },
    {
      "inputs": [
        {
          "internalType": "bytes32",
          "name": "slot",
          "type": "bytes32"
        }
      ],
      "name": "UUPSUnsupportedProxiableUUID",
      "type": "error"
    },
    {
      "anonymous": false,
      "inputs": [
        {
          "indexed": false,
          "internalType": "uint64",
          "name": "version",
          "type": "uint64"
        }
      ],
      "name": "Initialized",
      "type": "event"
    },
    {
      "anonymous": false,
      "inputs": [
        {
          "indexed": true,
          "internalType": "address",
          "name": "previousOwner",
          "type": "address"
        },
        {
          "indexed": true,
          "internalType": "address",
          "name": "newOwner",
          "type": "address"
        }
      ],
      "name": "OwnershipTransferred",
      "type": "event"
    },
    {
      "anonymous": false,
      "inputs": [
        {
          "indexed": true,
          "internalType": "address",
          "name": "implementation",
          "type": "address"
        }
      ],
      "name": "Upgraded",
      "type": "event"
    },
    {
      "inputs": [],
      "name": "UPGRADE_INTERFACE_VERSION",
      "outputs": [
        {
          "internalType": "string",
          "name": "",
          "type": "string"
        }
      ],
      "stateMutability": "view",
      "type": "function"
    },
    {
      "inputs": [
        {
          "internalType": "address",
          "name": "_owner",
          "type": "address"
        }
      ],
      "name": "__Registry_init",
      "outputs": [],
      "stateMutability": "nonpayable",
      "type": "function"
    },
    {
      "inputs": [
        {
          "internalType": "bytes32",
          "name": "extensionId",
          "type": "bytes32"
        }
      ],
      "name": "exists",
      "outputs": [
        {
          "internalType": "bool",
          "name": "",
          "type": "bool"
        }
      ],
      "stateMutability": "view",
      "type": "function"
    },
    {
      "inputs": [
        {
          "internalType": "bytes32",
          "name": "extensionId",
          "type": "bytes32"
        }
      ],
      "name": "extensionOf",
      "outputs": [
        {
          "internalType": "contract IExtension",
          "name": "",
          "type": "address"
        }
      ],
      "stateMutability": "view",
      "type": "function"
    },
    {
      "inputs": [],
      "name": "owner",
      "outputs": [
        {
          "internalType": "address",
          "name": "",
          "type": "address"
        }
      ],
      "stateMutability": "view",
      "type": "function"
    },
    {
      "inputs": [],
      "name": "proxiableUUID",
      "outputs": [
        {
          "internalType": "bytes32",
          "name": "",
          "type": "bytes32"
        }
      ],
      "stateMutability": "view",
      "type": "function"
    },
    {
      "inputs": [
        {
          "internalType": "address",
          "name": "extension",
          "type": "address"
        },
        {
          "internalType": "bytes",
          "name": "data",
          "type": "bytes"
        }
      ],
      "name": "register",
      "outputs": [],
      "stateMutability": "nonpayable",
      "type": "function"
    },
    {
      "inputs": [],
      "name": "renounceOwnership",
      "outputs": [],
      "stateMutability": "nonpayable",
      "type": "function"
    },
    {
      "inputs": [
        {
          "internalType": "address",
          "name": "newOwner",
          "type": "address"
        }
      ],
      "name": "transferOwnership",
      "outputs": [],
      "stateMutability": "nonpayable",
      "type": "function"
    },
    {
      "inputs": [
        {
          "internalType": "bytes32",
          "name": "extensionId",
          "type": "bytes32"
        }
      ],
      "name": "unregister",
      "outputs": [],
      "stateMutability": "nonpayable",
      "type": "function"
    },
    {
      "inputs": [
        {
          "internalType": "address",
          "name": "newImplementation",
          "type": "address"
        },
        {
          "internalType": "bytes",
          "name": "data",
          "type": "bytes"
        }
      ],
      "name": "upgradeToAndCall",
      "outputs": [],
      "stateMutability": "payable",
      "type": "function"
    }
  ],
  "numDeployments": 1,
  "bytecode": "0x60a0806040523460295730608052610da6908161002f823960805181818161048701526105620152f35b600080fdfe6080604052600436101561001257600080fd5b6000803560e01c80631a0919dc1461098657806324b8fbf6146107d557806338a699a41461079e5780634f1ef286146104e657806352d1902d1461046c578063596968e5146102b8578063715018a6146102125780637264d2bc1461019d5780638da5cb5b14610157578063ad3cb1cc146100c55763f2fde38b1461009657600080fd5b346100c25760203660031901126100c2576100bf6100b26109b9565b6100ba610afe565b610a4b565b80f35b80fd5b50346100c257806003193601126100c25760408051916100e582846109cf565b600583527f352e302e300000000000000000000000000000000000000000000000000000006020840152815192839160208352815191826020850152815b838110610140575050828201840152601f01601f19168101030190f35b602082820181015188830188015287955001610123565b50346100c257806003193601126100c25760206001600160a01b037f9016d09d72d40fdae2fd8ceac6b6234c7706214fd39c1cd1e609a0528c1993005416604051908152f35b50346100c25760203660031901126100c2576004359081815260026020526040812054918215806101f4575b6101e1576020836001600160a01b0360405191168152f35b63015ab34360e11b825260045260249150fd5b5061020c816000526001602052604060002054151590565b156101c9565b50346100c257806003193601126100c25761022b610afe565b806001600160a01b037f9016d09d72d40fdae2fd8ceac6b6234c7706214fd39c1cd1e609a0528c1993005473ffffffffffffffffffffffffffffffffffffffff1981167f9016d09d72d40fdae2fd8ceac6b6234c7706214fd39c1cd1e609a0528c19930055167f8be0079c531659141344cd1fd0a4f28419497f9722a3daafe3b4186f6b6457e08280a380f35b50346100c25760203660031901126100c2576102d26109b9565b7ff0c57e16840df040f15088dc2f81fe391c3923bec73e23a9662efc9c229c6a00549060ff8260401c16159167ffffffffffffffff811680159081610464575b600114908161045a575b159081610451575b506104425767ffffffffffffffff1981166001177ff0c57e16840df040f15088dc2f81fe391c3923bec73e23a9662efc9c229c6a0055610376919083610403575b5061036e610b46565b6100ba610b46565b61037e610b46565b6103855780f35b68ff0000000000000000197ff0c57e16840df040f15088dc2f81fe391c3923bec73e23a9662efc9c229c6a0054167ff0c57e16840df040f15088dc2f81fe391c3923bec73e23a9662efc9c229c6a00557fc7f505b2f371ae2175ee4913f4499e1f2633a7b5936321eed1cdaeb6115181d2602060405160018152a180f35b68ffffffffffffffffff191668010000000000000001177ff0c57e16840df040f15088dc2f81fe391c3923bec73e23a9662efc9c229c6a005538610365565b63f92ee8a960e01b8452600484fd5b90501538610324565b303b15915061031c565b849150610312565b50346100c257806003193601126100c2576001600160a01b037f00000000000000000000000000000000000000000000000000000000000000001630036104d75760206040517f360894a13ba1a3210667c828492db98dca3e2076cc3735a920a3ca505d382bbc8152f35b63703e46dd60e11b8152600490fd5b5060403660031901126100c2576104fb6109b9565b6024359067ffffffffffffffff821161079a573660238301121561079a578160040135908361052983610a07565b9361053760405195866109cf565b8385526020850193366024828401011161079a57806024602093018637850101526001600160a01b037f000000000000000000000000000000000000000000000000000000000000000016803014908115610765575b506107565761059a610afe565b6040516352d1902d60e01b81526001600160a01b0382169390602081600481885afa86918161071d575b506105dd57634c9c8ce360e01b86526004859052602486fd5b93847f360894a13ba1a3210667c828492db98dca3e2076cc3735a920a3ca505d382bbc87960361070b5750823b156106f9579081859273ffffffffffffffffffffffffffffffffffffffff197f360894a13ba1a3210667c828492db98dca3e2076cc3735a920a3ca505d382bbc5416177f360894a13ba1a3210667c828492db98dca3e2076cc3735a920a3ca505d382bbc557fbc7cd75a20ee27fd9adebab32041f755214dbc6bffa90cc0225b39da2e5c2d3b8380a28051156106de576106d29382915190845af43d156106d6573d916106b683610a07565b926106c460405194856109cf565b83523d85602085013e610d12565b5080f35b606091610d12565b50505050346106ea5780f35b63b398979f60e01b8152600490fd5b634c9c8ce360e01b8552600452602484fd5b632a87526960e21b8652600452602485fd5b9091506020813d60201161074e575b81610739602093836109cf565b81010312610749575190386105c4565b600080fd5b3d915061072c565b63703e46dd60e11b8452600484fd5b90506001600160a01b037f360894a13ba1a3210667c828492db98dca3e2076cc3735a920a3ca505d382bbc541614153861058d565b8280fd5b50346100c25760203660031901126100c25760206107cb6004356000526001602052604060002054151590565b6040519015158152f35b50346100c25760403660031901126100c2576107ef6109b9565b9060243567ffffffffffffffff811161098257366023820112156109825780600401359267ffffffffffffffff841161079a576024820191602485369201011161079a576001600160a01b0390610844610afe565b1690811561079a57813b1561079a5760405163971b7aa760e01b815293838580610872848660048401610a23565b038183875af1801561097757610962575b83945060405163316b83b760e11b8152602081600481875afa90811561095757859161091f575b50806108c29186526002602052846040872055610cb2565b50823b1561091a576108ed9284928360405180968195829463a58b127760e01b845260048401610a23565b03925af1801561090f576108fe5750f35b81610908916109cf565b6100c25780f35b6040513d84823e3d90fd5b505050fd5b9450506020843d60201161094f575b8161093b602093836109cf565b81010312610749576108c2859451906108aa565b3d915061092e565b6040513d87823e3d90fd5b9290938161096f916109cf565b918390610883565b6040513d86823e3d90fd5b5080fd5b50346100c25760203660031901126100c2576106d26004356109a6610afe565b8083526002602052826040812055610bb4565b600435906001600160a01b038216820361074957565b90601f8019910116810190811067ffffffffffffffff8211176109f157604052565b634e487b7160e01b600052604160045260246000fd5b67ffffffffffffffff81116109f157601f01601f191660200190565b90918060409360208452816020850152848401376000828201840152601f01601f1916010190565b6001600160a01b03168015610ae8576001600160a01b037f9016d09d72d40fdae2fd8ceac6b6234c7706214fd39c1cd1e609a0528c199300548273ffffffffffffffffffffffffffffffffffffffff198216177f9016d09d72d40fdae2fd8ceac6b6234c7706214fd39c1cd1e609a0528c19930055167f8be0079c531659141344cd1fd0a4f28419497f9722a3daafe3b4186f6b6457e0600080a3565b631e4fbdf760e01b600052600060045260246000fd5b6001600160a01b037f9016d09d72d40fdae2fd8ceac6b6234c7706214fd39c1cd1e609a0528c19930054163303610b3157565b63118cdaa760e01b6000523360045260246000fd5b60ff7ff0c57e16840df040f15088dc2f81fe391c3923bec73e23a9662efc9c229c6a005460401c1615610b7557565b631afcd79f60e31b60005260046000fd5b8054821015610b9e5760005260206000200190600090565b634e487b7160e01b600052603260045260246000fd5b6000818152600160205260409020548015610cab576000198101818111610c9557600054600019810191908211610c9557818103610c44575b5050506000548015610c2e5760001901610c08816000610b86565b8154906000199060031b1b19169055600055600052600160205260006040812055600190565b634e487b7160e01b600052603160045260246000fd5b610c7d610c55610c66936000610b86565b90549060031b1c9283926000610b86565b819391549060031b91821b91600019901b19161790565b90556000526001602052604060002055388080610bed565b634e487b7160e01b600052601160045260246000fd5b5050600090565b80600052600160205260406000205415600014610d0c57600054680100000000000000008110156109f157610cf3610c668260018594016000556000610b86565b9055600054906000526001602052604060002055600190565b50600090565b90610d385750805115610d2757805190602001fd5b63d6bda27560e01b60005260046000fd5b81511580610d67575b610d49575090565b6001600160a01b0390639996b31560e01b6000521660045260246000fd5b50803b15610d4156fea26469706673582212202864b9f4b8a9d54d68a2eb6fa23108455e9f6b0c5da1d176850a1ae46d12b88d64736f6c634300081d0033"
}