{
  "address": "0x0813bA5BA97723a1e39E1b76887D9C097231eE0E",
  "abi": [
    {
      "inputs": [],
      "name": "EnforcedPause",
      "type": "error"
    },
    {
      "inputs": [],
      "name": "ExpectedPause",
      "type": "error"
    },
    {
      "inputs": [],
      "name": "InvalidInitialization",
      "type": "error"
    },
    {
      "inputs": [],
      "name": "NotInitializing",
      "type": "error"
    },
    {
      "inputs": [
        {
          "internalType": "address",
          "name": "owner",
          "type": "address"
        }
      ],
      "name": "OwnableInvalidOwner",
      "type": "error"
    },
    {
      "inputs": [
        {
          "internalType": "address",
          "name": "account",
          "type": "address"
        }
      ],
      "name": "OwnableUnauthorizedAccount",
      "type": "error"
    },
    {
      "inputs": [],
      "name": "Pool_InvalidRecipient",
      "type": "error"
    },
    {
      "anonymous": false,
      "inputs": [
        {
          "indexed": false,
          "internalType": "uint64",
          "name": "version",
          "type": "uint64"
        }
      ],
      "name": "Initialized",
      "type": "event"
    },
    {
      "anonymous": false,
      "inputs": [
        {
          "indexed": true,
          "internalType": "address",
          "name": "previousOwner",
          "type": "address"
        },
        {
          "indexed": true,
          "internalType": "address",
          "name": "newOwner",
          "type": "address"
        }
      ],
      "name": "OwnershipTransferred",
      "type": "event"
    },
    {
      "anonymous": false,
      "inputs": [
        {
          "indexed": false,
          "internalType": "address",
          "name": "account",
          "type": "address"
        }
      ],
      "name": "Paused",
      "type": "event"
    },
    {
      "anonymous": false,
      "inputs": [
        {
          "indexed": false,
          "internalType": "address",
          "name": "account",
          "type": "address"
        }
      ],
      "name": "Unpaused",
      "type": "event"
    },
    {
      "anonymous": false,
      "inputs": [
        {
          "indexed": true,
          "internalType": "address",
          "name": "recipient",
          "type": "address"
        },
        {
          "indexed": true,
          "internalType": "Token",
          "name": "token",
          "type": "address"
        },
        {
          "indexed": false,
          "internalType": "uint256",
          "name": "amount",
          "type": "uint256"
        }
      ],
      "name": "Withdrawal",
      "type": "event"
    },
    {
      "inputs": [
        {
          "internalType": "address",
          "name": "_initialOwner",
          "type": "address"
        },
        {
          "internalType": "address",
          "name": "_registry",
          "type": "address"
        },
        {
          "internalType": "bytes32[]",
          "name": "_extensions",
          "type": "bytes32[]"
        },
        {
          "internalType": "bytes[]",
          "name": "_data",
          "type": "bytes[]"
        }
      ],
      "name": "__Pool_init",
      "outputs": [],
      "stateMutability": "nonpayable",
      "type": "function"
    },
    {
      "inputs": [
        {
          "components": [
            {
              "internalType": "uint256",
              "name": "id",
              "type": "uint256"
            },
            {
              "internalType": "uint256",
              "name": "parentId",
              "type": "uint256"
            },
            {
              "internalType": "address",
              "name": "recipient",
              "type": "address"
            },
            {
              "internalType": "uint256",
              "name": "value",
              "type": "uint256"
            },
            {
              "internalType": "bytes32",
              "name": "stateId",
              "type": "bytes32"
            },
            {
              "internalType": "bytes",
              "name": "stateData",
              "type": "bytes"
            },
            {
              "internalType": "bytes32",
              "name": "strategyId",
              "type": "bytes32"
            },
            {
              "internalType": "bytes",
              "name": "strategyData",
              "type": "bytes"
            }
          ],
          "internalType": "struct Claim[]",
          "name": "claims",
          "type": "tuple[]"
        },
        {
          "components": [
            {
              "internalType": "uint256",
              "name": "amount",
              "type": "uint256"
            },
            {
              "internalType": "Token",
              "name": "token",
              "type": "address"
            },
            {
              "internalType": "bytes",
              "name": "strategyData",
              "type": "bytes"
            },
            {
              "internalType": "bytes",
              "name": "stateData",
              "type": "bytes"
            }
          ],
          "internalType": "struct WithdrawParams[]",
          "name": "params",
          "type": "tuple[]"
        }
      ],
      "name": "batchWithdraw",
      "outputs": [],
      "stateMutability": "nonpayable",
      "type": "function"
    },
    {
      "inputs": [],
      "name": "owner",
      "outputs": [
        {
          "internalType": "address",
          "name": "",
          "type": "address"
        }
      ],
      "stateMutability": "view",
      "type": "function"
    },
    {
      "inputs": [],
      "name": "pause",
      "outputs": [],
      "stateMutability": "nonpayable",
      "type": "function"
    },
    {
      "inputs": [],
      "name": "paused",
      "outputs": [
        {
          "internalType": "bool",
          "name": "",
          "type": "bool"
        }
      ],
      "stateMutability": "view",
      "type": "function"
    },
    {
      "inputs": [
        {
          "components": [
            {
              "internalType": "uint256",
              "name": "id",
              "type": "uint256"
            },
            {
              "internalType": "uint256",
              "name": "parentId",
              "type": "uint256"
            },
            {
              "internalType": "address",
              "name": "recipient",
              "type": "address"
            },
            {
              "internalType": "uint256",
              "name": "value",
              "type": "uint256"
            },
            {
              "internalType": "bytes32",
              "name": "stateId",
              "type": "bytes32"
            },
            {
              "internalType": "bytes",
              "name": "stateData",
              "type": "bytes"
            },
            {
              "internalType": "bytes32",
              "name": "strategyId",
              "type": "bytes32"
            },
            {
              "internalType": "bytes",
              "name": "strategyData",
              "type": "bytes"
            }
          ],
          "internalType": "struct Claim",
          "name": "claim",
          "type": "tuple"
        },
        {
          "components": [
            {
              "internalType": "uint256",
              "name": "amount",
              "type": "uint256"
            },
            {
              "internalType": "Token",
              "name": "token",
              "type": "address"
            },
            {
              "internalType": "bytes",
              "name": "strategyData",
              "type": "bytes"
            },
            {
              "internalType": "bytes",
              "name": "stateData",
              "type": "bytes"
            }
          ],
          "internalType": "struct WithdrawParams",
          "name": "params",
          "type": "tuple"
        }
      ],
      "name": "releasable",
      "outputs": [
        {
          "internalType": "uint256",
          "name": "",
          "type": "uint256"
        }
      ],
      "stateMutability": "view",
      "type": "function"
    },
    {
      "inputs": [
        {
          "internalType": "uint256",
          "name": "claimId",
          "type": "uint256"
        },
        {
          "internalType": "Token",
          "name": "token",
          "type": "address"
        }
      ],
      "name": "released",
      "outputs": [
        {
          "internalType": "uint256",
          "name": "",
          "type": "uint256"
        }
      ],
      "stateMutability": "view",
      "type": "function"
    },
    {
      "inputs": [],
      "name": "renounceOwnership",
      "outputs": [],
      "stateMutability": "nonpayable",
      "type": "function"
    },
    {
      "inputs": [
        {
          "internalType": "Token",
          "name": "token",
          "type": "address"
        }
      ],
      "name": "totalReceived",
      "outputs": [
        {
          "internalType": "uint256",
          "name": "",
          "type": "uint256"
        }
      ],
      "stateMutability": "view",
      "type": "function"
    },
    {
      "inputs": [
        {
          "internalType": "Token",
          "name": "token",
          "type": "address"
        }
      ],
      "name": "totalReleased",
      "outputs": [
        {
          "internalType": "uint256",
          "name": "",
          "type": "uint256"
        }
      ],
      "stateMutability": "view",
      "type": "function"
    },
    {
      "inputs": [
        {
          "internalType": "address",
          "name": "newOwner",
          "type": "address"
        }
      ],
      "name": "transferOwnership",
      "outputs": [],
      "stateMutability": "nonpayable",
      "type": "function"
    },
    {
      "inputs": [],
      "name": "unpause",
      "outputs": [],
      "stateMutability": "nonpayable",
      "type": "function"
    },
    {
      "inputs": [
        {
          "components": [
            {
              "internalType": "uint256",
              "name": "id",
              "type": "uint256"
            },
            {
              "internalType": "uint256",
              "name": "parentId",
              "type": "uint256"
            },
            {
              "internalType": "address",
              "name": "recipient",
              "type": "address"
            },
            {
              "internalType": "uint256",
              "name": "value",
              "type": "uint256"
            },
            {
              "internalType": "bytes32",
              "name": "stateId",
              "type": "bytes32"
            },
            {
              "internalType": "bytes",
              "name": "stateData",
              "type": "bytes"
            },
            {
              "internalType": "bytes32",
              "name": "strategyId",
              "type": "bytes32"
            },
            {
              "internalType": "bytes",
              "name": "strategyData",
              "type": "bytes"
            }
          ],
          "internalType": "struct Claim",
          "name": "claim",
          "type": "tuple"
        },
        {
          "components": [
            {
              "internalType": "uint256",
              "name": "amount",
              "type": "uint256"
            },
            {
              "internalType": "Token",
              "name": "token",
              "type": "address"
            },
            {
              "internalType": "bytes",
              "name": "strategyData",
              "type": "bytes"
            },
            {
              "internalType": "bytes",
              "name": "stateData",
              "type": "bytes"
            }
          ],
          "internalType": "struct WithdrawParams",
          "name": "params",
          "type": "tuple"
        }
      ],
      "name": "withdraw",
      "outputs": [],
      "stateMutability": "nonpayable",
      "type": "function"
    },
    {
      "stateMutability": "payable",
      "type": "receive"
    }
  ],
  "numDeployments": 1,
  "bytecode": "0x60808060405234601557611736908161001b8239f35b600080fdfe6080604052600436101561001b575b361561001957600080fd5b005b6000803560e01c806338c4375614610b285780633f4ba83a14610a825780634de300e4146108a85780634df9cfb31461085c5780635c975abb1461081a578063715018a6146107745780638456cb59146106db5780638da5cb5b14610695578063919769d614610274578063c730fe301461015f578063d79779b214610127578063debf7697146100e55763f2fde38b146100b6575061000e565b346100e25760203660031901126100e2576100df6100d2610f7a565b6100da61142f565b611066565b80f35b80fd5b50346100e25760403660031901126100e25760406020916001600160a01b0361010c610f90565b16815260028352818120600435825283522054604051908152f35b50346100e25760203660031901126100e25760406020916001600160a01b0361014e610f7a565b168152600183522054604051908152f35b50346100e257602461017036610f20565b919060206001600160a01b0385541660405193848092631c9934af60e21b825260c086013560048301525afa91821561026957918493916020936101d9969261023a575b506001600160a01b03604051809781958294630c730fe360e41b845260048401611477565b0392165afa90811561022e57906101f6575b602090604051908152f35b506020813d602011610226575b8161021060209383611155565b8101031261022157602090516101eb565b600080fd5b3d9150610203565b604051903d90823e3d90fd5b61025b919250843d8611610262575b6102538183611155565b81019061118d565b90386101b4565b503d610249565b6040513d86823e3d90fd5b50346100e25760803660031901126100e25761028e610f7a565b610296610f90565b60443567ffffffffffffffff8111610511576102b6903690600401610eef565b60649291923567ffffffffffffffff8111610691576102d9903690600401610eef565b9190927ff0c57e16840df040f15088dc2f81fe391c3923bec73e23a9662efc9c229c6a00549560ff8760401c16159667ffffffffffffffff811680159081610689575b600114908161067f575b159081610676575b506106675767ffffffffffffffff1981166001177ff0c57e16840df040f15088dc2f81fe391c3923bec73e23a9662efc9c229c6a005588949392916103849189610628575b5061037c6116c0565b6100da6116c0565b61038c6116c0565b6103946116c0565b6001600160a01b0384911673ffffffffffffffffffffffffffffffffffffffff198554161784555b81811061054d5750825b8181106104545783876103d65780f35b68ff0000000000000000197ff0c57e16840df040f15088dc2f81fe391c3923bec73e23a9662efc9c229c6a0054167ff0c57e16840df040f15088dc2f81fe391c3923bec73e23a9662efc9c229c6a00557fc7f505b2f371ae2175ee4913f4499e1f2633a7b5936321eed1cdaeb6115181d2602060405160018152a180f35b61045f81838861151a565b3561046b82858861152a565b909160206001600160a01b0388541691602460405180948193631c9934af60e21b835260048301525afa8015610542576001600160a01b03918891610524575b501691823b15610520576104e09287928360405180968195829463ef40dc0960e01b84526020600485015260248401916111de565b03925af19081156105155785916104fc575b50506001016103c6565b8161050691611155565b6105115783386104f2565b8380fd5b6040513d87823e3d90fd5b8680fd5b61053c915060203d8111610262576102538183611155565b386104ab565b6040513d89823e3d90fd5b61055881838861151a565b3561056482858861152a565b909160206001600160a01b0388541691602460405180948193631c9934af60e21b835260048301525afa8015610542576001600160a01b0391889161060a575b501691823b15610520576105d99287928360405180968195829463066ef8a760e21b84526020600485015260248401916111de565b03925af19081156105155785916105f5575b50506001016103bc565b816105ff91611155565b6105115783386105eb565b610622915060203d8111610262576102538183611155565b386105a4565b68ffffffffffffffffff191668010000000000000001177ff0c57e16840df040f15088dc2f81fe391c3923bec73e23a9662efc9c229c6a005538610373565b63f92ee8a960e01b8952600489fd5b9050153861032e565b303b159150610326565b89915061031c565b8580fd5b50346100e257806003193601126100e25760206001600160a01b037f9016d09d72d40fdae2fd8ceac6b6234c7706214fd39c1cd1e609a0528c1993005416604051908152f35b50346100e257806003193601126100e2576106f461142f565b6106fc611119565b600160ff197fcd5ed15c6e187e77e9aee88184c21f4f2182ab5827cb3b7e07fbedcd63f033005416177fcd5ed15c6e187e77e9aee88184c21f4f2182ab5827cb3b7e07fbedcd63f03300557f62e78cea01bee320cd4e420270b5ea74000d11b0c9f74754ebdbfc544b05a2586020604051338152a180f35b50346100e257806003193601126100e25761078d61142f565b806001600160a01b037f9016d09d72d40fdae2fd8ceac6b6234c7706214fd39c1cd1e609a0528c1993005473ffffffffffffffffffffffffffffffffffffffff1981167f9016d09d72d40fdae2fd8ceac6b6234c7706214fd39c1cd1e609a0528c19930055167f8be0079c531659141344cd1fd0a4f28419497f9722a3daafe3b4186f6b6457e08280a380f35b50346100e257806003193601126100e257602060ff7fcd5ed15c6e187e77e9aee88184c21f4f2182ab5827cb3b7e07fbedcd63f0330054166040519015158152f35b50346100e25760203660031901126100e2576108a0602091604061087e610f7a565b916001600160a01b036108908461149c565b9316815260018552205490611021565b604051908152f35b50346100e2576108b736610f20565b6108c2929192611119565b602460206001600160a01b0384541660405192838092631c9934af60e21b8252608089013560048301525afa908115610a5457906001600160a01b03918491610a63575b5016803b15610a5f57826040518092633a8b851960e11b8252818061092f878a60048401611477565b03915afa8015610a5457908391610a3b575b505061094d818461156c565b60408301926001600160a01b036109638561100d565b1615610a2c576100df929382357f2717ead6b9200dd235aad468c9809ea400fe33ac69b5bfaa6d3e90fc922b639860206001600160a01b0380610a1c610a16848a0197836109b08a61100d565b168d526002865260408d208d8b359052865260408d206109d1898254611021565b9055836109dd8a61100d565b168d526001865260408d206109f3898254611021565b9055610a1188610a028b61100d565b610a0b8461100d565b906112ea565b61100d565b9661100d565b60405195865216941692a361162b565b630e9db5e360e21b8352600483fd5b81610a4591611155565b610a50578138610941565b5080fd5b6040513d85823e3d90fd5b8280fd5b610a7c915060203d602011610262576102538183611155565b38610906565b50346100e257806003193601126100e257610a9b61142f565b7fcd5ed15c6e187e77e9aee88184c21f4f2182ab5827cb3b7e07fbedcd63f033005460ff811615610b195760ff19167fcd5ed15c6e187e77e9aee88184c21f4f2182ab5827cb3b7e07fbedcd63f03300557f5db9ee0a495bf2e6ff9c91a7834c1ba4fdd244a5e8aa4e537bd38aeae4b073aa6020604051338152a180f35b638dfc202b60e01b8252600482fd5b50346100e25760403660031901126100e25760043567ffffffffffffffff8111610a5057610b5a903690600401610eef565b60243567ffffffffffffffff811161051157610b7a903690600401610eef565b9091610b84611119565b6001600160a01b038554168115610edb573685900360fe190190853582811215610ed7576080602460209289016040519485938492631c9934af60e21b8452013560048301525afa8015610542576001600160a01b03918891610eb8575b5016803b1561052057908690604051928391632ad45de160e01b835285604484016040600486015252606483019060648760051b850101918a91865b898110610e755750505050600319838203016024840152868152602081019060208860051b82010191899186607e198c3603015b8b8210610e3157505050505082809103915afa8015610e2657610e12575b50845b818110610dea5750846000198201828111610dd65780805b610d64575090610d2f916001600160a01b03610cb26020610cac888a610fba565b0161100d565b168852600260205260408820610cc982868a611044565b35895260205260408820610cde838254611021565b90556001600160a01b03610cf76020610cac888a610fba565b168852600160205260408820610d0e838254611021565b9055610a0b6040610cac610d276020610cac8a8c610fba565b93878b611044565b845b818110610d3c578580f35b80610d5e610d4d6001938589611044565b610d58838789610feb565b9061162b565b01610d31565b610d736020610cac8789610fba565b6001600160a01b0380610d8c6020610cac868b8d610feb565b16911614610db9575b8015610da5576000190180610c8b565b634e487b7160e01b88526011600452602488fd5b91610dd090610dc9848789610feb565b3590611021565b91610d95565b634e487b7160e01b87526011600452602487fd5b80610e0c610dfb6001938589611044565b610e06838789610feb565b9061156c565b01610c73565b85610e1f91969296611155565b9338610c70565b6040513d88823e3d90fd5b9295975092955092601f19848203018552853582811215610e71576020610e5d6001938e83940161128b565b970195019201928795938d97959392610c52565b8d80fd5b9295509290939550606319878203018452843583811215610eb4576020610ea16001938e8394016111ff565b960194019101908694928c969492610c1e565b8c80fd5b610ed1915060203d602011610262576102538183611155565b38610be2565b8780fd5b634e487b7160e01b86526032600452602486fd5b9181601f840112156102215782359167ffffffffffffffff8311610221576020808501948460051b01011161022157565b9060406003198301126102215760043567ffffffffffffffff811161022157610100818403600319011261022157600401916024359067ffffffffffffffff82116102215760809082900360031901126102215760040190565b600435906001600160a01b038216820361022157565b602435906001600160a01b038216820361022157565b35906001600160a01b038216820361022157565b9015610fd557803590607e1981360301821215610221570190565b634e487b7160e01b600052603260045260246000fd5b9190811015610fd55760051b81013590607e1981360301821215610221570190565b356001600160a01b03811681036102215790565b9190820180921161102e57565b634e487b7160e01b600052601160045260246000fd5b9190811015610fd55760051b8101359060fe1981360301821215610221570190565b6001600160a01b03168015611103576001600160a01b037f9016d09d72d40fdae2fd8ceac6b6234c7706214fd39c1cd1e609a0528c199300548273ffffffffffffffffffffffffffffffffffffffff198216177f9016d09d72d40fdae2fd8ceac6b6234c7706214fd39c1cd1e609a0528c19930055167f8be0079c531659141344cd1fd0a4f28419497f9722a3daafe3b4186f6b6457e0600080a3565b631e4fbdf760e01b600052600060045260246000fd5b60ff7fcd5ed15c6e187e77e9aee88184c21f4f2182ab5827cb3b7e07fbedcd63f03300541661114457565b63d93c066560e01b60005260046000fd5b90601f8019910116810190811067ffffffffffffffff82111761117757604052565b634e487b7160e01b600052604160045260246000fd5b9081602091031261022157516001600160a01b03811681036102215790565b9035601e198236030181121561022157016020813591019167ffffffffffffffff821161022157813603831361022157565b908060209392818452848401376000828201840152601f01601f1916010190565b6112889181358152602082013560208201526001600160a01b0361122560408401610fa6565b166040820152606082013560608201526080820135608082015261127a61126561125260a08501856111ac565b61010060a08601526101008501916111de565b9260c081013560c084015260e08101906111ac565b9160e08185039101526111de565b90565b61128891813581526001600160a01b036112a760208401610fa6565b1660208201526112dc6112d16112c060408501856111ac565b6080604086015260808501916111de565b9260608101906111ac565b9160608185039101526111de565b9091906001600160a01b0381169081611376575050600080808093855af1156113105750565b601f19601f3d01166001600160a01b03604051926390bfb86560e01b845216600483015260006024830152608060448301528060a00160648301523d60848301523d600060a484013e808201600460a482015260c46306885ea160e41b91015260e40190fd5b602060006044819496826040956001600160a01b03988751998a9463a9059cbb60e01b865216600485015260248401525af13d15601f3d116001855114161716928281528260208201520152156113ca5750565b6040516390bfb86560e01b8152600481019190915263a9059cbb60e01b602482015260806044820152601f3d01601f191660a0810160648301523d60848301523d600060a484013e808201600460a482015260c46372486deb60e01b91015260e40190fd5b6001600160a01b037f9016d09d72d40fdae2fd8ceac6b6234c7706214fd39c1cd1e609a0528c1993005416330361146257565b63118cdaa760e01b6000523360045260246000fd5b909161148e611288936040845260408401906111ff565b91602081840391015261128b565b6001600160a01b0316806114af57504790565b6020602491604051928380926370a0823160e01b82523060048301525afa90811561150e576000916114df575090565b90506020813d602011611506575b816114fa60209383611155565b81010312610221575190565b3d91506114ed565b6040513d6000823e3d90fd5b9190811015610fd55760051b0190565b9190811015610fd55760051b81013590601e198136030182121561022157019081359167ffffffffffffffff8311610221576020018236038113610221579190565b90600091602460206001600160a01b0385541660405192838092631c9934af60e21b825260c087013560048301525afa90811561026957906001600160a01b0391859161160c575b501690813b15610511579183916115e29383604051809681958294632fb6fa2f60e11b845260048401611477565b03925af18015611601576115f4575050565b816115fe91611155565b50565b6040513d84823e3d90fd5b611625915060203d602011610262576102538183611155565b386115b4565b90600091602460206001600160a01b0385541660405192838092631c9934af60e21b825260c087013560048301525afa90811561026957906001600160a01b039185916116a1575b501690813b15610511579183916115e29383604051809681958294630405b79560e41b845260048401611477565b6116ba915060203d602011610262576102538183611155565b38611673565b60ff7ff0c57e16840df040f15088dc2f81fe391c3923bec73e23a9662efc9c229c6a005460401c16156116ef57565b631afcd79f60e31b60005260046000fdfea264697066735822122051da4d0c0eb3ef4e74d27149e221a9f5f3edbb05968a083008eca72acb1bbab864736f6c634300081d0033"
}